{
  "contractName": "Migrations",
  "abi": [
    {
      "inputs": [],
      "payable": false,
      "stateMutability": "nonpayable",
      "type": "constructor"
    },
    {
      "constant": true,
      "inputs": [],
      "name": "owner",
      "outputs": [
        {
          "internalType": "address",
          "name": "",
          "type": "address"
        }
      ],
      "payable": false,
      "stateMutability": "view",
      "type": "function"
    },
    {
      "constant": false,
      "inputs": [
        {
          "internalType": "uint256",
          "name": "completed_migration_number",
          "type": "uint256"
        }
      ],
      "name": "setCompleted",
      "outputs": [],
      "payable": false,
      "stateMutability": "nonpayable",
      "type": "function"
    },
    {
      "constant": false,
      "inputs": [
        {
          "internalType": "address",
          "name": "new_address",
          "type": "address"
        }
      ],
      "name": "update",
      "outputs": [],
      "payable": false,
      "stateMutability": "nonpayable",
      "type": "function"
    }
  ],
  "bytecode": "0x608060405234801561001057600080fd5b50336000806101000a81548173ffffffffffffffffffffffffffffffffffffffff021916908373ffffffffffffffffffffffffffffffffffffffff160217905550610288806100606000396000f3fe608060405234801561001057600080fd5b50600436106100415760003560e01c80631c1b8772146100465780638da5cb5b1461008a578063fdacd576146100d4575b600080fd5b6100886004803603602081101561005c57600080fd5b81019080803573ffffffffffffffffffffffffffffffffffffffff169060200190929190505050610102565b005b6100926101ce565b604051808273ffffffffffffffffffffffffffffffffffffffff1673ffffffffffffffffffffffffffffffffffffffff16815260200191505060405180910390f35b610100600480360360208110156100ea57600080fd5b81019080803590602001909291905050506101f3565b005b6000809054906101000a900473ffffffffffffffffffffffffffffffffffffffff1673ffffffffffffffffffffffffffffffffffffffff163373ffffffffffffffffffffffffffffffffffffffff1614156101cb5760008190508073ffffffffffffffffffffffffffffffffffffffff1663fdacd5766001546040518263ffffffff1660e01b815260040180828152602001915050600060405180830381600087803b1580156101b157600080fd5b505af11580156101c5573d6000803e3d6000fd5b50505050505b50565b6000809054906101000a900473ffffffffffffffffffffffffffffffffffffffff1681565b6000809054906101000a900473ffffffffffffffffffffffffffffffffffffffff1673ffffffffffffffffffffffffffffffffffffffff163373ffffffffffffffffffffffffffffffffffffffff16141561025057806001819055505b5056fea265627a7a72315820c4af41403349cc4eac7b6e5546d7528e37a684f69e449d5892546762b8241a0364736f6c63430005110032",
  "source": "pragma solidity ^0.5.0;\r\n\r\n\r\ncontract Migrations {\r\n    address public owner;\r\n    uint last_completed_migration;\r\n\r\n   constructor() public {\r\n        owner = msg.sender;\r\n   }\r\n\r\n   modifier onlyOwner() {\r\n       if (msg.sender == owner) _;  // if the sender is the owner, then continue;\r\n   }\r\n\r\n   function setCompleted(uint completed_migration_number) public onlyOwner {\r\n       last_completed_migration = completed_migration_number; //stores the value into a new variable\r\n   }\r\n\r\n   function update(address new_address) public onlyOwner {\r\n       Migrations updated = Migrations(new_address);\r\n       updated.setCompleted(last_completed_migration);\r\n   }\r\n}",
  "sourcePath": "C:/Users/Kush/defi-dapp/src/contracts/Migrations.sol",
  "compiler": {
    "name": "solc",
    "version": "0.5.17+commit.d19bba13.Emscripten.clang"
  },
  "schemaVersion": "3.2.3",
  "updatedAt": "2022-07-13T13:25:11.181Z",
  "networkType": "ethereum",
  "devdoc": {
    "methods": {}
  },
  "userdoc": {
    "methods": {}
  }
}